{
  "contractName": "Forum",
  "abi": [
    {
      "inputs": [],
      "payable": false,
      "stateMutability": "nonpayable",
      "type": "constructor"
    },
    {
      "anonymous": false,
      "inputs": [
        {
          "indexed": true,
          "internalType": "uint256",
          "name": "postCount",
          "type": "uint256"
        }
      ],
      "name": "postEvent",
      "type": "event"
    },
    {
      "constant": true,
      "inputs": [],
      "name": "postCount",
      "outputs": [
        {
          "internalType": "uint256",
          "name": "",
          "type": "uint256"
        }
      ],
      "payable": false,
      "stateMutability": "view",
      "type": "function"
    },
    {
      "constant": true,
      "inputs": [
        {
          "internalType": "uint256",
          "name": "",
          "type": "uint256"
        }
      ],
      "name": "posts",
      "outputs": [
        {
          "internalType": "uint256",
          "name": "id",
          "type": "uint256"
        },
        {
          "internalType": "string",
          "name": "contents",
          "type": "string"
        },
        {
          "internalType": "address payable",
          "name": "owner",
          "type": "address"
        },
        {
          "internalType": "string",
          "name": "time",
          "type": "string"
        }
      ],
      "payable": false,
      "stateMutability": "view",
      "type": "function"
    },
    {
      "constant": false,
      "inputs": [
        {
          "internalType": "string",
          "name": "_contents",
          "type": "string"
        },
        {
          "internalType": "string",
          "name": "_time",
          "type": "string"
        }
      ],
      "name": "comment",
      "outputs": [],
      "payable": false,
      "stateMutability": "nonpayable",
      "type": "function"
    }
  ],
  "bytecode": "0x608060405234801561001057600080fd5b5061006e6040518060600160405280602c81526020016108a9602c91396040518060400160405280600f81526020017f576564204170722030372032303231000000000000000000000000000000000081525061007360201b60201c565b610209565b600160008154809291906001019190505550604051806080016040528060015481526020018381526020013373ffffffffffffffffffffffffffffffffffffffff1681526020018281525060008060015481526020019081526020016000206000820151816000015560208201518160010190805190602001906100f8929190610164565b5060408201518160020160006101000a81548173ffffffffffffffffffffffffffffffffffffffff021916908373ffffffffffffffffffffffffffffffffffffffff160217905550606082015181600301908051906020019061015c929190610164565b509050505050565b828054600181600116156101000203166002900490600052602060002090601f016020900481019282601f106101a557805160ff19168380011785556101d3565b828001600101855582156101d3579182015b828111156101d25782518255916020019190600101906101b7565b5b5090506101e091906101e4565b5090565b61020691905b808211156102025760008160009055506001016101ea565b5090565b90565b610691806102186000396000f3fe608060405234801561001057600080fd5b50600436106100415760003560e01c80630b1e7f831461004657806317906c2e1461019357806343d239bd146101b1575b600080fd5b6100726004803603602081101561005c57600080fd5b8101908080359060200190929190505050610303565b60405180858152602001806020018473ffffffffffffffffffffffffffffffffffffffff1673ffffffffffffffffffffffffffffffffffffffff16815260200180602001838103835286818151815260200191508051906020019080838360005b838110156100ee5780820151818401526020810190506100d3565b50505050905090810190601f16801561011b5780820380516001836020036101000a031916815260200191505b50838103825284818151815260200191508051906020019080838360005b83811015610154578082015181840152602081019050610139565b50505050905090810190601f1680156101815780820380516001836020036101000a031916815260200191505b50965050505050505060405180910390f35b61019b610483565b6040518082815260200191505060405180910390f35b610301600480360360408110156101c757600080fd5b81019080803590602001906401000000008111156101e457600080fd5b8201836020820111156101f657600080fd5b8035906020019184600183028401116401000000008311171561021857600080fd5b91908080601f016020809104026020016040519081016040528093929190818152602001838380828437600081840152601f19601f8201169050808301925050505050505091929192908035906020019064010000000081111561027b57600080fd5b82018360208201111561028d57600080fd5b803590602001918460018302840111640100000000831117156102af57600080fd5b91908080601f016020809104026020016040519081016040528093929190818152602001838380828437600081840152601f19601f820116905080830192505050505050509192919290505050610489565b005b6000602052806000526040600020600091509050806000015490806001018054600181600116156101000203166002900480601f0160208091040260200160405190810160405280929190818152602001828054600181600116156101000203166002900480156103b55780601f1061038a576101008083540402835291602001916103b5565b820191906000526020600020905b81548152906001019060200180831161039857829003601f168201915b5050505050908060020160009054906101000a900473ffffffffffffffffffffffffffffffffffffffff1690806003018054600181600116156101000203166002900480601f0160208091040260200160405190810160405280929190818152602001828054600181600116156101000203166002900480156104795780601f1061044e57610100808354040283529160200191610479565b820191906000526020600020905b81548152906001019060200180831161045c57829003601f168201915b5050505050905084565b60015481565b61049382826104c6565b6001547f5162caf52a0298375096adb7334eb8672472ad2e4efbc71cea80574e5ad2e12960405160405180910390a25050565b600160008154809291906001019190505550604051806080016040528060015481526020018381526020013373ffffffffffffffffffffffffffffffffffffffff16815260200182815250600080600154815260200190815260200160002060008201518160000155602082015181600101908051906020019061054b9291906105b7565b5060408201518160020160006101000a81548173ffffffffffffffffffffffffffffffffffffffff021916908373ffffffffffffffffffffffffffffffffffffffff16021790555060608201518160030190805190602001906105af9291906105b7565b509050505050565b828054600181600116156101000203166002900490600052602060002090601f016020900481019282601f106105f857805160ff1916838001178555610626565b82800160010185558215610626579182015b8281111561062557825182559160200191906001019061060a565b5b5090506106339190610637565b5090565b61065991905b8082111561065557600081600090555060010161063d565b5090565b9056fea265627a7a72315820d0723ece6ab425b11bb39cc539d80f93f05bdef65631d39f461564366abdc75964736f6c63430005110032446f20796f75206861766520736f6d657468696e67204e65777320576f7274687920746f207265706f72743f",
  "source": "pragma solidity ^0.5.12;\n\ncontract Forum {\n    // Model a post\n    struct Post {\n        uint id;\n        string contents;\n        address payable owner;\n        string time;\n    }\n\n    // Store Post\n    // Fetch Post\n    mapping(uint => Post) public posts;\n    // Store Post Count\n    uint public postCount;\n\n\n    event postEvent (\n        uint indexed postCount \n    );\n\n    constructor () public {\n        // Default candidate from pets.json\n        addPost(\"Do you have something News Worthy to report?\", \"Wed Apr 07 2021\");\n    }\n\n    function addPost (string memory _contents, string memory _time) private {\n        postCount ++;\n        posts[postCount] = Post(postCount, _contents, msg.sender, _time);\n    }\n\n    function comment (string memory _contents, string memory _time) public {\n        addPost(_contents, _time);\n        \n        emit postEvent(postCount);\n    }\n}\n",
  "sourcePath": "/Users/scr/Documents/MEng/APS1050/APS1050-DApp/contracts/Forum.sol",
  "compiler": {
    "name": "solc",
    "version": "0.5.17+commit.d19bba13.Emscripten.clang"
  },
  "schemaVersion": "3.3.4",
  "updatedAt": "2021-04-07T06:48:20.984Z",
  "networkType": "ethereum",
  "devdoc": {
    "methods": {}
  },
  "userdoc": {
    "methods": {}
  }
}